:100000006CC0000092C0000090C000008EC00000D4
:100010008CC000008AC0000088C0000086C00000BC
:1000200084C000000C940D2280C000000C941326A4
:100030007CC000007AC0000078C0000076C00000DC
:100040000C94F92772C000000C94952A0C94C72ACE
:100050006CC000006AC0000068C0000066C00000FC
:1000600064C0000062C0000005A84CCDB2D44EB9F7
:100070003836A9020C50B9918688083CA6AAAA2A4B
:10008000BE000000803F00000008000201000003E5
:100090000407000000000000000001020408102016
:1000A000408001020408102001020408102004040A
:1000B0000404040404040202020202020303030310
:1000C000030300000000250028002B0000000000B2
:1000D000240027002A00A800EC2A11241FBECFEF1D
:1000E000D8E0DEBFCDBF11E0A0E0B1E0E0E2F8E58E
:1000F00002C005900D92A43EB107D9F725E0A4EE09
:10010000B1E001C01D92AE38B207E1F710E0CDE6D4
:10011000D0E004C02197FE010E94DF2BCB36D1072F
:10012000C9F70E94F9220C940E2C6ACF70E023E0EC
:10013000829FC00111248C519E4F0C94642770E063
:1001400023E0829FC00111248C519E4F0C94A02764
:1001500084EE91E00C94CC2690E080E008950F931B
:100160001F93009709F487C06115710509F483C0D6
:10017000009115011091160120911701309118017D
:100180000E3F1F4F2F4F3F4F09F066C04FEF5FEFFD
:10019000BA014093150150931601609317017093B3
:1001A000180140911501509116016091170170914D
:1001B0001801DC011296ED91FC9180819181A28160
:1001C000B3818093DD029093DE02A093DF02B093AF
:1001D000E00284819581A681B7818093D9029093B2
:1001E000DA02A093DB02B093DC0280859185A285C0
:1001F000B3858093D5029093D602A093D702B09393
:10020000D80284859585A685B7858093D102909381
:10021000D202A093D302B093D4021092CD021092D6
:10022000CE021092CF021092D00203D58EE396E058
:100230009093E8018093E7019093EA018093E901AC
:10024000E7D3009731F421E030E03093E2022093CD
:10025000E1021F910F91089500911501109116016F
:100260002091170130911801DB010D931D932D93FF
:100270003C93139796CF8FEF9FEFEBCF8F929F9288
:10028000AF92BF92CF92DF92EF92FF921F93CF93E4
:10029000DF934B015C011091E40282E090E09093C7
:1002A000E2028093E10281149104A104B10441F4BB
:1002B0008091E402811104C08091E302C1E08111C8
:1002C000C0E0C12CD12C76018091E402811106C0DE
:1002D0008091E302811102C0CC23D9F083E090E049
:1002E0009093E2028093E102CC2379F1CCE9DFEF35
:1002F000111102C00E94A309CE01DF91CF911F917D
:10030000FF90EF90DF90CF90BF90AF909F908F9035
:1003100008956AE070E080E090E00E94682880E143
:10032000C80E87E2D81EE11CF11C8FEF88169806D4
:10033000A806B80631F0C1E08C149D04AE04BF04D9
:1003400008F0C0E080E098D3BFCFD0E0C0E0D0CFCD
:10035000CF92DF92EF92FF920F931F93CF93DF9391
:100360008F3F910511F008F050C02091E1023091CB
:10037000E2022330310539F02091E1023091E202AE
:100380002130310531F424E030E03093E202209353
:10039000E1026A017B01EC0182309105A0F011E0DD
:1003A000AE01C701B60133D3AB01BC01CE011123AD
:1003B000F9F0DF91CF911F910F91FF90EF90DF90B7
:1003C000CF900C94CC0B8C01000F111F09511E4FC4
:1003D000D8018D919C91892B11F30E94D60B029725
:1003E000F1F6D801ED91FC91CE010995182FD8CFE7
:1003F0000E94EE0B90E080E0DF91CF911F910F9172
:10040000FF90EF90DF90CF9008958FEF9FEFF4CFA4
:1004100080E032C3CF93DF9386E090E09093E202D6
:100420008093E10282D3EC01E7EEF1E084E0DF01AA
:100430001D928A95E9F71FD71092E2021092E1020D
:10044000CE01DF91CF9108958091E30208958091CC
:10045000CC020895609315017093160180931701E3
:100460009093180190E080E00895CF92DF92EF9290
:10047000FF926B017C019F7720E030E040E859E576
:100480000E94022487FF2BC020E030E040E05FE3C1
:10049000C701B6010E94372587FD0EC020E030E07D
:1004A00040E05FE3C701B6010E948B23FF90EF900D
:1004B000DF90CF900C946F2420E030E040E05FEBC1
:1004C000C701B6010E943725181684F420E030E0F9
:1004D000A901C701B6010E943B256B017C01C70140
:1004E000B601FF90EF90DF90CF90089520E030E0CC
:1004F00040E05FE3C701B6010E948A23FF90EF90BE
:10050000DF90CF900C94EF23CF92DF92EF92FF9287
:10051000CF93DF9380911401813009F0A9C08091BD
:10052000000190910101A0910201B091030180931B
:10053000880590938905A0938A05B0938B0520E0E8
:1005400030E044EB52E46091880570918905809118
:100550008A0590918B050E948B236B017C0120E022
:1005600030E0A9010E94022487FDBDC020E030E0F8
:1005700044E353E4C701B6010E94372564EB181623
:10058000DCF0C701B60171DF6B017C0120E030E0D7
:1005900040E853E40E9402246FEF87FF0DC020E083
:1005A00030E0A901C701B6010E94372587FD9BC035
:1005B000C701B6010E94062480E0C1DD409193028C
:1005C00050919402609195027091960290E080E0C3
:1005D000BFDE40919B0250919C0260919D02709100
:1005E0009E0281E090E0B4DE6091930270919402EB
:1005F00080919502909196026F5F7F4F8F4F9F4F32
:100600006093930270939402809395029093960264
:10061000C091A602D091A7020E9432249B01AC0196
:1006200060919702709198028091990290919A023C
:100630000E943B25688379838A839B8380919B02F8
:1006400090919C02A0919D02B0919E020196A11DE5
:10065000B11D80939B0290939C02A0939D02B09346
:100660009E02DF91CF91FF90EF90DF90CF900895A1
:10067000E091A602F091A70220910C0130910D01AA
:1006800040910E0150910F016081718182819381AF
:100690000E943B25209110013091110140911201DF
:1006A000509113010E948B230E949E2520910401EA
:1006B0003091050140910601509107010E943B25B0
:1006C000209108013091090140910A0150910B01DC
:1006D0000E948B23609388057093890580938A0517
:1006E00090938B052CCF60E067CF0F931F93CF9330
:1006F000DF93EBEFF1E083EA92E097838683C6EA2B
:10070000D2E0D0933C02C0933B0207E912E0158B84
:10071000048BF0936602E0936502F583E48321E0A5
:1007200030E0DC012D933C938EE391E09387828748
:1007300088EA92E09983888340E050E060E271E4C7
:1007400040939F025093A0026093A1027093A20273
:100750004AE057ED63E27CE3D8014D935D936D93DE
:100760007C931397C1E8D2E049ED5CE66BE07AE94F
:10077000488359836A837B834AEE5BEB60ED79E4BF
:10078000409385025093860260938702709388029B
:1007900045E151ED63EB7DEF4093890250938A026E
:1007A00060938B0270938C024CE459E167E675E02C
:1007B00040938D0250938E0260938F02709390024B
:1007C000AFEEB1E0B383A283EBEEF1E01196FC93C0
:1007D000EE9320E531E0318320833383228321E9C6
:1007E00032E015963C932E9314971396DC93CE9398
:1007F000129717969C938E93169769E080E0DF918D
:10080000CF911F910F9192CC08954F925F926F926A
:100810007F928F929F92AF92BF92CF92DF92EF9290
:10082000FF920F931F93F8944090BC025090BD022A
:100830006090BE027090BF02C090B002D090B10232
:10084000E090B202F090B3024130510509F0A4C02B
:100850009B01AC01241935094609570929013A01C0
:100860000091B8021091B9022091BA023091BB02F6
:1008700048015901840C951CA61CB71C80169106D2
:10088000A206B306A0F40091B4021091B502209123
:10089000B6023091B7020F5F1F4F2F4F3F4F0093AB
:1008A000B4021093B5022093B6023093B70280923F
:1008B000B8029092B902A092BA02B092BB02009123
:1008C000B4021091B5022091B6023091B702809225
:1008D000C0029092C102A092C202B092C3020093E1
:1008E000C4021093C5022093C6023093C7026093DE
:1008F000BC027093BD028093BE029093BF02A0E140
:10090000B7E2A30192010E94E52B6C0D7D1D8E1DA7
:100910009F1D6093B0027093B1028093B2029093D6
:10092000B302009115011091160120911701309129
:1009300018010F3F1F4F2F4F3F4FF1F0009115014E
:100940001091160120911701309118010E3F1F4F91
:100950002F4F3F4F89F0C0901501D0901601E090C5
:100960001701F090180121E08C149D04AE04BF041F
:1009700008F420E02093CC0278941F910F91FF900F
:10098000EF90DF90CF90BF90AF909F908F907F902F
:100990006F905F904F9008954B015C01841895080B
:1009A000A608B708A3019201261B370B480B590B69
:1009B0006415750586059705D0F082169306A40682
:1009C000B50640F420E030E0A90181149104A104AF
:1009D000B10491F4A0E1B7E20E94E52BA7019601D2
:1009E000261B370B480B590BCA01B901C5CF82161C
:1009F0009306A406B50670F7A0E1B7E2A50194013D
:100A00000E94E52B6C0D7D1D8E1D9F1DB5CFFDCE6B
:100A1000CF93DF9300D000D0CDB7DEB71C821B820E
:100A20001A8219821092C8021092C9021092CA0248
:100A30001092CB02BE016F5F7F4FCE0103960E94E2
:100A4000F02169817A818B819C810E94E61A00974E
:100A500061F4BE016F5F7F4FCE0103960E94FC21BF
:100A600069817A818B819C812DD50F900F900F9099
:100A70000F90DF91CF910895FF920F931F93CF9323
:100A8000DF93082F60E070E0CB010E946828FF240C
:100A9000F3940E94D119EC01892B89F010E0CE3F2C
:100AA0008FEFD80769F0002361F160E070E0CB01BF
:100AB0000E94682881E090E0892B59F322C011E060
:100AC00024D5EC01892B21F0CE3F8FEFD80759F7C1
:100AD00011111EC011E0229609F410E00E94821943
:100AE000EC01892B21F0CE3F8FEFD807E1F61111F1
:100AF00011C011E0CE3F8FEFD80709F410E00111CB
:100B00000BC0CE01DF91CF911F910F91FF900895FF
:100B100011E0E4CF11E0F3CF60E070E0CB010E9480
:100B200068281F25812F90E0C7CFCF93DF93809156
:100B3000CC02882321F060E070E0CB014DD636D6A0
:100B4000D0E0C0E0892B71F06AE070E080E090E0D6
:100B50000E94682881E090DF29D62196C03D27E0D9
:100B6000D20781F728D60E943A1B1092E402109215
:100B7000E3021092DD021092DE021092DF02109268
:100B8000E0021092D9021092DA021092DB02109267
:100B9000DC021092D5021092D6021092D702109267
:100BA000D8021092D1021092D2021092D302109267
:100BB000D4021092CD021092CE021092CF02109267
:100BC000D0024EEF5FEF6FEF7FEF40931501509330
:100BD000160160931701709318011092CC02E0EC9B
:100BE000F2E028E0DF011D922A95E9F71092BC029D
:100BF0001092BD021092BE021092BF021092B80273
:100C00001092B9021092BA021092BB021092B40272
:100C10001092B5021092B6021092B7021092B00272
:100C20001092B1021092B2021092B302DF91CF91F2
:100C300008951092F0021092F1021092F2021092B6
:100C4000F3021092EF028091F8029091F9029093D2
:100C5000EE028093ED021092EC021092EB021092E1
:100C6000E7021092E8021092E9021092EA02109252
:100C7000F5021092F40290E080E00895CF92DF92A6
:100C8000EF92FF920F931F93CF938C01019709F07E
:100C900055C02091F8023091F9028091ED029091B7
:100CA000EE024091F8025091F9025093EE02409307
:100CB000ED022817390781F01092EC021092EB0236
:100CC0001092E7021092E8021092E9021092EA02F2
:100CD0001092F5021092F4028091F8029091F902BC
:100CE000019761F58091F4029091F502892B21F42E
:100CF00080911901811112C08091F4029091F50246
:100D00000197E1F48091E7029091E802A091E90255
:100D1000B091EA020197A105B10581F41092E702B2
:100D20001092E8021092E9021092EA021092190160
:100D300082E090E09093F5028093F4028091F802B3
:100D40009091F902019709F01CC180910E039091D6
:100D50000F038017910709F014C180910A03909145
:100D60000B03A0910C03B0910D03009709F409C186
:100D70002091090321110DC040910A0350910B03EA
:100D800060910C0370910D03452B462B472B09F402
:100D9000F8C02091F4023091F5022230310509F0BB
:100DA000F0C02091EB022111ECC0FC01C080D18089
:100DB000E280F3808091EF02882309F4D3C0809110
:100DC000FB029091FC02892B09F4FEC02091FB02EA
:100DD0003091FC0281E02230310509F080E0209161
:100DE000FB023091FC02C1E02130310549F0209135
:100DF000FB023091FC02C1E02230310509F0C0E075
:100E0000882309F456C020910503309106034091D0
:100E1000070350910803C701B6010E94372587FDDB
:100E200014C02091050330910603409107035091AF
:100E300008036091F0027091F1028091F2029091AA
:100E4000F3020E94022487FD22C020910503309105
:100E500006034091070350910803C701B6010E94A1
:100E60003725181634F5209105033091060340917B
:100E70000703509108036091F0027091F102809194
:100E8000F2029091F3020E940224811112C080911B
:100E9000FD029091FE02A091FF02B0910003892B08
:100EA0008A2B8B2B19F481E08093EC0281E08093F4
:100EB000EB02CC2309F456C02091050330910603C0
:100EC0004091070350910803C701B6010E94022414
:100ED00087FF14C02091050330910603409107035A
:100EE000509108036091F0027091F1028091F2023A
:100EF0009091F3020E94372587FF22C020910503BD
:100F0000309106034091070350910803C701B601D1
:100F10000E940224811126C020910503309106030E
:100F200040910703509108036091F0027091F10223
:100F30008091F2029091F3020E943725181694F4E2
:100F40008091FD029091FE02A091FF02B0910003FA
:100F5000892B8A2B8B2B19F481E08093EC0281E0A2
:100F60008093EB0281E09091EB02911180E08093FD
:100F7000EF02C092F002D092F102E092F202F092FF
:100F8000F3020130110509F067C18091F4029091DC
:100F9000F502892BD9F41092FA021092EB0280919B
:100FA0001901882379F082E090E09093F502809314
:100FB000F402109219012091F8023091F90281E0B7
:100FC000232BE9F080E01BC081E009CF10921901CA
:100FD0008091FA02882349F01092EC021092F502F7
:100FE0001092F4021092FA02EDCF8091F8029091E3
:100FF000F902892BE1F08091EB021092EB02209133
:10100000F4023091F5022230310509F45EC088F413
:101010002115310509F448C02130310509F4F3C028
:101020001092EC021092EB021092FA0238C081E0AA
:10103000E6CF2330310509F4B1C02430310581F702
:101040004091E7025091E8026091E9027091EA0252
:10105000411551056105710561F041505109610962
:1010600071094093E7025093E8026093E90270939C
:10107000EA024091E7025091E8026091E902709122
:10108000EA02452B462B472BD9F42091F6023091EA
:10109000F7022130310509F046C01092EC0210929F
:1010A000F5021092F4020CC080911901882341F0DE
:1010B00082E090E09093F5028093F402109219017F
:1010C0001092E5028091EC02CEC08823C9F3809192
:1010D000FD029091FE02A091FF02B091000318164C
:1010E00019061A061B060CF07DC08091F80290913B
:1010F000F902019709F076C08091FD029091FE02FD
:10110000A091FF02B09100038093E7029093E80260
:10111000A093E902B093EA0283E090E09093F50295
:101120008093F402CDCF409101035091020360916E
:10113000030370910403452B462B472BA9F0109213
:10114000EC028091010390910203A0910303B091FE
:1011500004038093E7029093E802A093E902B0931E
:10116000EA0281E090E0DACF882399F080911A01B9
:1011700090911B01A0911C01B0911D018093E70289
:101180009093E802A093E902B093EA0284E090E031
:10119000C5CF1092EC0282E090E0C0CF8091E702D0
:1011A0009091E802A091E902B091EA020097A105AE
:1011B000B10559F00197A109B1098093E702909315
:1011C000E802A093E902B093EA028091E7029091CD
:1011D000E802A091E902B091EA02892B8A2B8B2BBD
:1011E00009F06ECF80911A0190911B01A0911C0112
:1011F000B0911D01892B8A2B8B2B09F44ECF81E0F6
:101200008093EC02B3CF4091E7025091E8026091E5
:10121000E9027091EA02411551056105710561F01D
:1012200041505109610971094093E7025093E80266
:101230006093E9027093EA024091E7025091E8025C
:101240006091E9027091EA02452B462B472B09F089
:1012500037CF8111C7CF9FCF8091E502882309F452
:1012600031CF8091E602CF911F910F91FF90EF90C7
:10127000DF90CF9008951092F0021092F102109238
:10128000F2021092F3021092EF021092F502109205
:10129000F4021092EE021092ED0210920F031092DF
:1012A0000E031092EC021092EB021092E7021092E1
:1012B000E8021092E9021092EA021092E6021092FD
:1012C000E50210920A0310920B0310920C03109285
:1012D0000D03109209031092050310920603109259
:1012E00007031092080388EE93E0A0E0B0E080933B
:1012F0001A0190931B01A0931C01B0931D01109241
:10130000010310920203109203031092040310923F
:10131000FD021092FE021092FF0210920003109242
:10132000FC021092FB0281E0809319011092FA02F4
:101330001092F9021092F8021092F7021092F6023F
:1013400090E080E008958091F8029091F902892B55
:1013500019F580911901882351F08091FA028111C9
:1013600006C081E08093E6028093E5020895209113
:10137000FA023091190181E090E0332311F090E0FE
:1013800080E030E082239323892B21F01092E60243
:1013900081E0EACF1092E502089582E090E0FA0140
:1013A000918380838FEF9FEF0895CF93DF93EA01BE
:1013B000009711F00E94571C1982188290E080E07B
:1013C000DF91CF910895DB01009719F48FEF8C9393
:1013D00008952EEF2C930F968F30910508F033C0AF
:1013E000FC01EB50F64F0C94DF2B210A1F0A1D0A5B
:1013F0001B0A190A150A170A130A110A0F0A0C0AFE
:10140000080A040A0A0A230A80E311968C930895B5
:1014100089E2FBCF82E2F9CF11961C92089583E214
:10142000F4CF81E2F2CF81E1F0CF87E2EECF8AE222
:10143000ECCF80E1EACF84E2E8CF88E2E6CF86E233
:10144000E4CF81E3E2CF80E2E0CF80911C03909172
:101450001D03089590931D0380931C0308958091AC
:101460001B03089590911B03892B80931B03089500
:10147000982F909580911B03892380931B030895D7
:1014800080911A030895809118039091190308958B
:101490006115710559F0FB0130E020E070E060E07B
:1014A0002417350719F06115710511F0CB01089566
:1014B000A081B181A817B90709F4BF012F5F3F4F81
:1014C0003696EECF80911E0381111CC062D268D285
:1014D00090931103809310030E946A140E947C145D
:1014E00090931503809314030E94EC180E94F31844
:1014F000909313038093120381E080931E0390E086
:1015000080E0089584EF9FEF08958F929F92AF92AD
:10151000BF92CF92DF92EF92FF920F931F93CF93E0
:10152000DF93CDB7DEB72A970FB6F894DEBF0FBEB4
:10153000CDBF1A86198618861F821E821D821C82C4
:101540001B821A82198280911E0307EF1FEF8823E6
:1015500009F49CC08E010D5F1F4F9E012B5F3F4F12
:10156000AE01495F5F4FBE01675F7F4F90E080E053
:101570000E946C1A8C01009721F00596029708F0E2
:10158000DBC029853A852115310509F402C1ED80BA
:10159000FE804B815C81B701640F751F8F81988538
:1015A0008617970708F4F5C0E20EF31ED7019C9149
:1015B000903C09F07FC04230510508F47BC0119681
:1015C0008C9140911C0350911D03452B09F49CC044
:1015D000913F08F071C02CE1290F2D3008F48BC029
:1015E0002DE2290F203108F489C0903C21F481506C
:1015F000823008F483C088E3890F8B3008F481C0FF
:1016000093EEC92E99E0D92EEDECF9E06D817E8143
:10161000AE014F5F5F4F89859A8509955C01C114C2
:10162000D104A1F189809A808114910479F18B8190
:101630009C818815990508F487C010E000E04B8173
:101640005C8170E060E0C7010E94072C0115110564
:10165000E9F449815A8169857A858D819E81680F77
:10166000791FC501F6010995E980FA800D811E8177
:101670002F81388549855A856FEF7FEF81E090E0B3
:101680000E94081A8C01892B09F056C0C8012A96BD
:101690000FB6F894DEBF0FBECDBFDF91CF911F9183
:1016A0000F91FF90EF90DF90CF90BF90AF909F9001
:1016B0008F90089580E085CF30E020E0220F331F27
:1016C000F901E05FFC4F0190F081E02D309709F4C3
:1016D00097CF892F90E00995009709F491CFDC010D
:1016E0001296ED91FC9113971496CD90DC90309763
:1016F00009F08CCF1FC021E030E0E0CF22E030E0E5
:10170000DDCF23E030E0DACFD12CC12CE5EDF9E0DC
:101710009F3F09F07BCFE0911003F09111033097C8
:1017200021F4C90104EF1FEF0CC08FEF90E0099581
:101730000097A9F604EF1FEF89859A85009709F4B1
:10174000A5CF0E94571CA2CF0E94351B8C01898512
:101750009A850E94571C70E060E0C4010E94CE1A76
:1017600098878F830E94051A9E838D836F81788569
:101770006115710559F0C8010E94E31D9A87898798
:1017800006EF1FEF892B09F058CF59CF08EF1FEF55
:1017900056CF08EF1FEFD0CF20911E03222319F060
:1017A00020E00C94811487EF9FEF089580911C0333
:1017B00090911D0308950E94F8180E945218F5D0C8
:1017C000E0E1F3E088E0DF011D928A95E9F71092ED
:1017D0001E0390E080E008950C94AF1621E040E0F5
:1017E00050E0BA010C94811486E090E0FA019183F4
:1017F000808390E080E0089547E050E063E571E089
:1018000047CEDF92EF92FF920F931F93CF93DF9318
:101810008A01EC01C60FD71FE0902203F09023034A
:10182000D9800E941D1BD816190678F082E090E03E
:10183000F801918380838EEF9FEFDF91CF911F910D
:101840000F91FF90EF90DF900895EF2841F482E030
:1018500090E0F8019183808384EF9FEFEECF898140
:101860008093210390E00196F8019183808390E0BA
:1018700080E0E3CFCF93DF93EA010E9460178823D3
:1018800021F00E942A1B0E94611782E090E0998358
:1018900088838BEF9FEFDF91CF910895CF93DF93F4
:1018A000EB0186E0FB0111928A95E9F78FEF8883BF
:1018B000D6DD8983E5DD8A83E6DD9D838C83DF9138
:1018C000CF910895CF93DF93EA010E9463178111AE
:1018D00009C082E090E09983888385EF9FEFDF91D4
:1018E000CF91089590E080E0B5DD81E090E09983AC
:1018F000888390E080E0F3CF0F931F93CF93DF9323
:10190000EA018C01060F171F0E94631781110BC09B
:1019100082E090E09983888385EF9FEFDF91CF91FC
:101920001F910F910895F8018181823038F082E093
:1019300090E0998388838EEF9FEFF0CF81E090E075
:1019400089DD88E090E09983888390E080E0E6CFAD
:10195000CF93DF930097D1F4EB01FB01329686E041
:10196000DF011D928A95E9F78FEF888385E08983EF
:101970001A820E941D1B8B830E941C1B9D838C83DB
:1019800081E08E838F83DF91CF910895DF91CF9196
:101990001ACD8CEF9BE09093200380931F03089552
:1019A00080911F03909120030895109220031092BC
:1019B0001F030895809122039091230308954111FC
:1019C00005C0611571058105910561F060932203E1
:1019D000709323038093240390932503409326035D
:1019E00081E0089580E00895FF920F931F93CF93B5
:1019F000DF938A01EC01C60FD71FF9800E941D1BDF
:101A0000F816190668F082E090E0F801918380836F
:101A10008EEF9FEFDF91CF911F910F91FF9008956F
:101A20006C817D818E819F814B81C9DF811108C0CE
:101A300082E090E0F8019183808384EF9FEFEACF0A
:101A400089818093210390E00196F801918380833E
:101A500090E080E0DFCFCF93DF93EA01FC01E60F57
:101A6000F71F64817581868197814381A8DF811189
:101A700009C082E090E09983888384EF9FEFDF9133
:101A8000CF91089581E090E09983888390E080E091
:101A9000F6CFE2E2F3E04081518162817381480F29
:101AA000511D611D711D40835183628373830895AD
:101AB000CF93C09121034C2F50E06091220370918D
:101AC000230301960E94FE2B8C2FE3DF109221034B
:101AD000CF910895009799F4809122039091230368
:101AE0002FEFFB012083892B59F02091210330E057
:101AF0002F5F3F4F2417350719F4CB01D9CF63CCA3
:101B00000895009799F480912203909123032FEF79
:101B1000FB012083892B59F02091210330E02F5FB6
:101B20003F4F2417350719F4CB01C2CF4CCC089591
:101B300023E1AC01249FC001259F900D1124E09169
:101B40002B03F0912C03E80FF91F238134812250DD
:101B5000310981E02230310508F080E008950F93CB
:101B60001F93CF93DF9300912D0310912E03D0E0AC
:101B7000C0E080E00C171D0749F491E0811190E06E
:101B8000892FDF91CF911F910F9108958111F5CF8A
:101B9000CE01CEDF2196EECFA0912B03B0912C0386
:101BA000109729F120912D0330912E03821793076E
:101BB000F0F453E1589F9001599F300D1124A20F6A
:101BC000B31FED91FC911197309789F012968C918B
:101BD000681768F48BE0689FE00DF11D1124808187
:101BE0009181892B21F081E09281491708F080E0F2
:101BF00008959C0143E1429FC001439F900D112431
:101C0000E0912B03F0912C03E80FF91F83858230BC
:101C100091F481E090E06581768140911E015091C0
:101C20001F016417750711F490E080E0892B19F00B
:101C300081E0232B09F080E00895EF92FF920F934B
:101C40001F93CF93DF93EA01FC01E60FF71F028198
:101C50001381E480F5804F2D6E2DC8019DDF811129
:101C60000DC082E090E0998388838EEF9FEFDF9133
:101C7000CF911F910F91FF90EF900895C80158DF09
:101C8000882339F082E090E09983888388EF9FEF82
:101C9000EECF1093250100932401E0922601F092EB
:101CA000270181E090E09983888390E080E0DFCF96
:101CB000CF92DF92EF92FF920F931F93CF93DF9318
:101CC0007A01EC01C60FD71FC0902401D0902501E6
:101CD0000091260110912701412F602FC6015CDF82
:101CE000811110C082E090E0F701918380838AEF38
:101CF0009FEFDF91CF911F910F91FF90EF90DF90B9
:101D0000CF900895C60114DF882341F082E090E06F
:101D1000F7019183808388EF9FEFEBCF4C815D814A
:101D20006E817F819A8189818F3F41F082E090E0CE
:101D3000F701918380838EEF9FEFDBCFE3E1EC9D92
:101D40009001ED9D300D1124E0912B03F0912C03B7
:101D5000E20FF31F0190F081E02D2BE0029FE00DD8
:101D6000F11D11240190F081E02D27E0129FE00D7C
:101D7000F11D1124808391838B818283438354835B
:101D8000658376831F5F1093270181E090E0F70160
:101D90009183808390E080E0ACCFEF92FF920F932D
:101DA0001F93CF93DF937A018C01060F171FC09109
:101DB0002B03D0912C03209781F021E030E0F80133
:101DC0008281938140912D0350912E0384179507B2
:101DD00010F030E020E0232B71F482E090E0F70176
:101DE000918380838EEF9FEFDF91CF911F910F91B1
:101DF000FF90EF90089543E1489F9001499F300D77
:101E00001124C20FD31F94DE882341F082E090E0BA
:101E1000F7019183808388EF9FEFE6CFF80124815B
:101E2000358120383105C8F687818111D6CF4181AF
:101E3000842F90E08F7E009741F082E090E0F701E0
:101E40009183808386EF9FEFCFCF4F833E832D8397
:101E5000268128871986223010F421E0288721E086
:101E600030E0F70131832083BFCF88E090E0FA01B2
:101E70009183808390E080E00895FB018FEF808361
:101E800081E181838FEF9FEF9383828380E890E0ED
:101E900095838483168217820895FB018FEF8083D8
:101EA00091E0918382839383848384E3858381E0BB
:101EB00090E0978386830895DF92EF92FF920F93CD
:101EC0001F93CF93DF93EA01FC01E60FF71F818197
:101ED000813071F082E090E0998388838FEF9FEFEB
:101EE000DF91CF911F910F91FF90EF90DF900895B8
:101EF00082819381D4802581E680F78000912B0335
:101F000010912C030115110539F482E090E09983BA
:101F100088838CEF9FEFE4CF40912D0350912E03E7
:101F20008417950738F082E090E0998388838EEFDC
:101F30009FEFD6CF892B39F082E090E09983888398
:101F400086EF9FEFCDCF8D2D8D7FB1F72130A1F79B
:101F500081E0D11006C091E0E916F10431F080E093
:101F600004C0E2E0EE16F104D0F3882329F390E0F8
:101F700080E0DEDD882339F082E090E09983888379
:101F800088EF9FEFADCFF801D38681E08487F68696
:101F9000E586108A178681E090E09983888390E037
:101FA00080E09ECF4CE050E06DE771E071CA8F9207
:101FB0009F92BF92CF92DF92EF92FF920F931F9367
:101FC000CF93DF93EA01FC01E60FF71F8281938133
:101FD0000481B580E0912B03F0912C03309791F4AC
:101FE00082E090E0998388838CEF9FEFDF91CF911F
:101FF0001F910F91FF90EF90DF90CF90BF909F9037
:102000008F90089520912D0330912E03821793070E
:1020100038F082E090E0998388838EEF9FEFE6CFDF
:1020200023E1289F6001299FD00C1124EC0DFD1D98
:10203000E080F180E114F10499F28281081748F7F9
:102040008BE0089F80011124E00EF11EF7018081D2
:102050009181892B29F6BB20E1F2F7E0BF9E400178
:102060001124C4010E941E1CF70191838083E0911A
:102070002B03F0912C03EC0DFD1D0190F081E02D60
:10208000E00FF11F80819181009739F482E090E0A8
:10209000998388838DEF9FEFA9CFA40170E060E062
:1020A0000E94072C80912B0390912C03C80ED91EFF
:1020B000F60180819181080F191FF801B28281E039
:1020C00090E09983888390E080E090CFAF92BF92B8
:1020D000CF92DF92FF920F931F93CF93DF93EA018A
:1020E000FC01E60FF71F82819381F48000912B039E
:1020F00010912C030115110581F482E090E0998381
:1021000088838CEF9FEFDF91CF911F910F91FF900C
:10211000DF90CF90BF90AF90089520912D03309124
:102120002E038217930738F082E090E0998388832A
:102130008EEF9FEFE8CF2FEF2F0D2C3FA8F723E175
:10214000289F6001299FD00C11240C0D1D1DF80142
:1021500080819181892B89F6FBE0FF9E500111243B
:10216000C5010E941E1CF80191838083E0912B031E
:10217000F0912C03EC0DFD1D80819181009739F4C5
:1021800082E090E0998388838DEF9FEFBCCFA5011B
:1021900070E060E00E94072CE0912B03F0912C038B
:1021A000EC0DFD1DF28281E090E09983888390E040
:1021B00080E0A9CFCF92DF92EF92FF920F931F930F
:1021C000CF93DF93860F971FFC01028113818091CB
:1021D0002B0390912C03892B81F082E090E0FA018F
:1021E000918380838CEF9FEFDF91CF911F910F91AF
:1021F000FF90EF90DF90CF900895C801B0E0A0E08D
:102200000197A109B1098F3F9F4FA105B10540F08A
:1022100082E090E0FA01918380838EEF9FEFE4CF1C
:102220007A0183E1809F6001819FD00C1124C60157
:102230000E941E1CEC01009741F482E090E0F7013F
:10224000918380838DEF9FEFCFCFA60170E060E098
:102250000E94072CD0932C03C0932B0310932E03C2
:1022600000932D0390E080E02FEF3FEF41E061E02D
:1022700070E08017910741F481E090E0F7019183CD
:10228000808390E080E0B0CF3A8B298B1B864C870F
:102290007E876D87188A1F8601966396EACFCF9254
:1022A000DF92EF92FF920F931F93CF93DF93EC0196
:1022B000D12CC12C10E000E0F12CE12C6A8170E0FF
:1022C00006171707BCF0660F771FAE014F5E5F4F12
:1022D000C7010E94831C009721F02FEF3FEF3A8B3C
:1022E000298BDF91CF911F910F91FF90EF90DF909D
:1022F000CF900895E881F981EC0DFD1D4381548153
:102300008D859E85489F9001499F300D589F300DC7
:102310001124C90101960115110519F44F8144FDDD
:10232000049661E070E00E94CE1AE816F90608F4FF
:102330007C010F5F1F4F8BE0C80ED11CBFCFF894FC
:102340002091290330912A0381E02115310509F0FC
:1023500080E0232B09F0789408952F923F924F92BA
:102360005F926F927F928F929F92AF92BF92CF9225
:10237000DF92EF92FF920F931F93CF93DF933C0175
:10238000660E771EF301828193814C01B12CA12C42
:10239000C0912B03D0912C03209769F021E030E00D
:1023A00060912D0370912E038617970710F030E08F
:1023B00020E0232BD1F482E090E0FA019183808326
:1023C0008EEF9FEFDF91CF911F910F91FF90EF90D4
:1023D000DF90CF90BF90AF909F908F907F906F9045
:1023E0005F904F903F902F90089580922801909297
:1023F0002901A0922A01B0922B0163E1689F90010C
:10240000699F300D1124C20FD31FF30181818330E6
:1024100040F082E090E0FA019183808386EF9FEFA5
:10242000D1CF2A012B813C81232BF1F428813981E2
:102430009F8191FF2EC0232B09F46FC020913003A0
:102440009A81422F490F5527551FBA0141E050E0AC
:102450006138710514F050E040E0452B09F45DC08F
:102460002A87920F909330038150823008F481C004
:1024700066DF882309F4D8C0F3018181813009F433
:102480008DC008F47BC0823009F4C6C090E080E0C3
:10249000ADC0232B09F441C020912F039A81E22F74
:1024A000E90FFF27FF1F41E050E0ED3FF10514F079
:1024B00050E040E0452B89F12A87920F90932F033B
:1024C000D3CFA081B181A20FB31F11966C91060FDB
:1024D000111D0196295F3F4F8417950794F38D8551
:1024E0009E85089F1001099F300C189F300C112405
:1024F000C114D104D1F48F8184FF17C00E941C1B2A
:10250000F5E02F0E311C21E08215930508F420E040
:10251000A701455F5F4F21110EC082E090E0F201FC
:102520009183808387EF9FEF4DCF0E941C1B2FEF7D
:10253000221A320AE8CF88819981E80EF91EF70144
:1025400014830383FFEFCF1ADF0A7A018A818C1587
:102550001D0409F00CF48CCFE881F981EE0DFF1D0C
:10256000428150E030E020E010E000E090E080E0C8
:10257000B3CFF12CE12CD12CC12CE8CF81E090E03D
:102580009C838B83ECDA882309F480CF81E090E090
:102590000E942A0A80E40E94380A78CF89899A89A1
:1025A000019661F083E090E09C838B8382E090E071
:1025B0000E942A0A80E40E94320A68CF8D819E819F
:1025C00020911E0130911F0182179307D1F4609171
:1025D000220170912301AE014F5E5F4F8091200177
:1025E000909121010E94A21D0097E1F2789422E0CF
:1025F00030E0F20131832083892B99F08DEF9FEF3A
:10260000E1CE89288A288B2869F6029758F6CE01F0
:1026100046DE188A1F86E8CF82E090E09C838B8399
:1026200035CF90E080E0CECE82E090E0F201918361
:10263000808385EF9FEFC6CE8F929F92AF92BF921D
:10264000CF92DF92EF92FF920F931F93CF93DF937E
:10265000EA018C01060F171FF8018181833098F081
:1026600082E090E09983888386EF9FEFDF91CF919E
:102670001F910F91FF90EF90DF90CF90BF90AF90A0
:102680009F908F90089580912B0390912C03892B1C
:1026900061F081E090E020912D0330912E03232BF7
:1026A00011F490E080E0892B39F482E090E0998386
:1026B00088838EEF9FEFDACF42DE882309F4E0C0F3
:1026C000F8018181813009F496C0E8F0823099F4F4
:1026D00020912D0330912E03E0912B03F0912C03D8
:1026E00090E080E041E050E02817390709F0BEC0D3
:1026F00036DA811117C0789481E090E0998388835D
:1027000090E080E0B3CF20912D0330912E03E09133
:102710002B03F0912C0390E080E041E050E028177B
:10272000390741F481E090E00E942A0A80E40E9487
:10273000380AE1CF63817481672B11F0548343839E
:1027400001967396ECCFE0912B03F0912C03E00FF0
:10275000F11F2381348122303105D9F42189328956
:102760002F3F3F4FB1F42581368140911E0150919A
:102770001F012417350761F5AF014F5E5F4F609170
:1027800022017091230180912001909121010E94EA
:10279000A21DEFEFCE1ADE0AEE0AFE0A0D5E1F4FF3
:1027A00040912D0350912E0370E060E0C416D506D1
:1027B000E606F70644F5009731F27894892B09F480
:1027C0009BCF82E090E0998388838DEF9FEF4ECF7F
:1027D000C114D104E104F104E1F622303105C8F658
:1027E000CF015DDDE0912B03F0912C03E00FF11F91
:1027F000108A1786CECF10E000E090E080E0C12C78
:10280000D12C7601CDCF0097C1F610E000E0812CED
:10281000912C540183E0E82EF12C1AC0E0912B0397
:10282000F0912C03E00FF11F83819481029749F40A
:10283000F482E38282E090E00E942A0A80E40E940F
:10284000320AFFEF8F1A9F0AAF0ABF0A0D5E1F4FB1
:1028500080912D0390912E03B0E0A0E08816990698
:10286000AA06BB06DCF290E080E0A7CF638174810A
:102870006230710511F4548343830196739634CF0B
:1028800082E090E09983888385EF9FEFEFCE0097F9
:10289000B9F48FEFFB018083209128013091290149
:1028A00043E1429FC001439F900D1124E0912B030F
:1028B000F0912C03E80FF91F8285FB0181830895B5
:1028C0000C94E30988E090E0FA019183808390E022
:1028D00080E0089510922A0310922903EBE2F3E0BE
:1028E00086E0DF011D928A95E9F782ED9FE09093E3
:1028F000280380932703089580912703909128034C
:1029000008952F923F924F925F926F927F928F9293
:102910009F92AF92BF92CF92DF92EF92FF920F936E
:102920001F93CF93DF93CDB7DEB760970FB6F894C0
:10293000DEBF0FBECDBFF894E0912903F0912A03CA
:102940003196F0932A03E09329037894A0912B0306
:10295000B0912C03BA83A983109709F4FAC1E091CE
:102960002D03F0912E03EF2B09F4F3C128874B8739
:102970005C876D877E879A878987B88BAF87312C74
:10298000212CF12C512C412C80912D0390912E0360
:102990002816390610F4FF2029F1F89480912903B4
:1029A00090912A03019790932A03809329037894A6
:1029B000C20160960FB6F894DEBF0FBECDBFDF91A7
:1029C000CF911F910F91FF90EF90DF90CF90BF902C
:1029D000AF909F908F907F906F905F904F903F90BF
:1029E0002F900895B10190E080E087D4682EEF85A4
:1029F000F889878181FD3DC0838194810397C9F562
:102A0000258136813C832B8389859A852817390750
:102A100081F5C101EED8782E8823A9F1AF85B88958
:102A20001F968D919C915097019621E01D964D9196
:102A30005C918417950709F020E02F83B12CA12C1D
:102A4000EF85F88982818A151B0419F014F0FF20A4
:102A5000E9F0F885FF2309F46CC1AF85B889509679
:102A60001C921E921F97662021F0B10190E080E039
:102A700046D4FFEF2F1A3F0A2F8538892D5E3F4F2E
:102A8000388B2F8781CFB1E0BF83D8CFBED49E8350
:102A90008D83E885EE23E9F0772009F43CC1AF850A
:102AA000B8891F968D919C91892B79F0BBE0BA9DD6
:102AB000C001BB9D900D1124AF85B889ED91FC91AB
:102AC000E80FF91F85819681F2D6BFEFAB1ABB0ADA
:102AD000B7CF81E0772039F0EF85F88927853089F5
:102AE000232B09F080E0F82EE12CA114B10439F475
:102AF000AF85B8891796EC90E4FAEE24E0F8BBE0D5
:102B0000BA9D6001BB9DD00C1124882309F424C117
:102B1000AF85B889ED91FC911197EC0DFD1D4381B6
:102B200054811D962D913C91429FC001439F900D71
:102B3000529F900D1124E1105DC00196908787830C
:102B400061E070E08781908529D5EF85F88921893A
:102B50003289008111810C0D1D1D2F3F320709F4B0
:102B60004BC0BC01C9010E94E31DD80116969C937D
:102B70008E931597AF85B889ED91FC911197EC0D67
:102B8000FD1D058116810115110509F4CDC0ED81EA
:102B9000FE810E0F1F1F1A968C918A0DD8018C93FF
:102BA000E1102FC00F5F1F4FAF85B889ED91FC91E9
:102BB000EC0DFD1D12870187AF85B889ED91FC9161
:102BC000EC0DFD1D85819681892B09F4A4C08091AF
:102BD0001E0190911F012B813C812817390709F4B0
:102BE00065C0772011F001851285912C812C1A8205
:102BF00019824AC00596A2CF21D6F8019683858313
:102C0000B9CF8B859C85AD85BE85F8018183928384
:102C1000A383B4830B5F1F4FC7CFE080F180E80C24
:102C2000F91CD70113966D917C9114978C918F3F6D
:102C300009F473C0E1E0F0E002C0EE0FFF1F8A95D7
:102C4000E2F7CF01092E000CAA0BBB0BFB01408160
:102C500051816281738184239523A623B72321E0C8
:102C6000892B8A2B8B2B09F420E0D8012C93D701D8
:102C700011968C91080F111DE981FA813196FA8322
:102C8000E983F7E08F0E911CAF85B889ED91FC9137
:102C9000EC0DFD1D828129813A818217130611F006
:102CA0000CF0BBCF772011F0128701873F813323CF
:102CB00091F1AF85B889ED91FC91EC0DFD1D61E0BE
:102CC00070E0878190856AD4AF85B889ED91FC91D9
:102CD000EC0DFD1DE780F08445815681E1E0F0E0D8
:102CE000662011F0F0E0E0E00D811E819C01B10151
:102CF000882799278E1B9F0B8BD32C01892B59F08A
:102D0000EF85F88980819181C80ED91ED60115966C
:102D10008D919C91CCD5F12CD8CEF701418150E01A
:102D2000C8010E94FE2BA3CF86EF482E55245A944B
:102D3000CCCEEF85F889878590890196908B87871F
:102D4000258536858217930709F08DCE108A178660
:102D50008ACE512C412C21CE10E000E02DCF2F92B5
:102D60003F924F925F926F927F928F929F92AF921B
:102D7000BF92CF92DF92EF92FF920F931F93CF9368
:102D8000DF9380912B0390912C0310E000E0892BBE
:102D9000A9F0D5DA0AEF1FEF882381F020902D03E8
:102DA00030902E03C0912B03D0912C03D12CC12C39
:102DB00010E000E02C143D04A9F47894C801DF91E0
:102DC000CF911F910F91FF90EF90DF90CF90BF9028
:102DD000AF909F908F907F906F905F904F903F90BB
:102DE0002F900895C6010E94F90D882309F18B8167
:102DF0009C810397E9F48F859889892BC9F0B601E6
:102E000090E080E07AD221E030E0882311F030E0D9
:102E100020E044245524421A530AB12CA12C912CB1
:102E2000812C8A818815190409F038F4188A1F86C4
:102E30004FEFC41AD40A6396BDCFE881F981EA0D39
:102E4000FB1D85819681892BA1F161E070E087816E
:102E50009085A4D33C01D9D28C01E881F981EA0D97
:102E6000FB1D8185928525813681200F311FAC01A4
:102E7000421B530B9A0147815085421B530B70E054
:102E800060E00E94072CE881F981EA0DFB1DE780D4
:102E9000F084458156819301B601C201B9D28C01FB
:102EA000892B39F0E881F981EA0DFB1D8581968136
:102EB000FED45FEF851A950A8BE0A80EB11CB1CF46
:102EC0003ECA789408952F923F924F925F926F92EC
:102ED0007F929F92AF92BF92CF92DF92EF92FF923A
:102EE0000F931F93CF93DF9300D000D000D0CDB7C6
:102EF000DEB700912B0310912C03992493940115B4
:102F0000110509F43EC0A0902D03B0902E0317DAEE
:102F1000982E8823B1F110922C0310922B0310925B
:102F20002E0310922D0310922F03109230038FEF77
:102F30009FEFDC018093280190932901A0932A013F
:102F4000B0932B0178947AD31E830D83C12CD12C9E
:102F50007601C501B0E0A0E089839A83AB83BC838E
:102F600022242A94322C89819A81AB81BC81C81693
:102F7000D906EA06FB06F4F0C80199D480E40E9461
:102F8000380A892D26960FB6F894DEBF0FBECDBF46
:102F9000DF91CF911F910F91FF90EF90DF90CF9035
:102FA000BF90AF909F907F906F905F904F903F90B9
:102FB0002F900895AD81BE8115968D919C911697A5
:102FC00020911E0130911F0182179307D1F4519671
:102FD0008D919C91E6D5ED81FE8180819181B12C0E
:102FE000A12C412C512C3201892B89F5BFEFCB1A32
:102FF000DB0AEB0AFB0AED81FE817396FE83ED830B
:10300000B2CFC114D104E104F10429F7029718F7F3
:10301000ED81FE81818992898F3F980709F021D542
:10302000AD81BE8152963C922E925197D4CF8A0D9B
:103030009B1DDC018D919C91009709F038D4BFEF66
:103040004B1A5B0A6B0A7B0AEBE0AE0EB11CAD813A
:10305000BE818D919C91119712964C9150E070E039
:1030600060E044165506660677060CF320D4BECF02
:10307000CF93DF93EA0127DF811109C082E090E05E
:103080009983888385EF9FEFDF91CF91089581E049
:1030900090E00E942A0A81E090E09983888390E082
:1030A00080E0F2CF10DF10922803109227030895DA
:1030B00042E050E065EC71E00C94480AFF920F93F7
:1030C0001F93CF93DF938A01EC01C60FD71FF980BE
:1030D000B4D20897F816190671F068F082E090E013
:1030E000F801918380838EEF9FEFDF91CF911F9145
:1030F0000F91FF9008956C817D818E819F814B811E
:103100000E94DF0C811108C082E090E0F8019183F9
:10311000808384EF9FEFE9CFF9800E94DA0C4F2D76
:1031200050E0BE01685F7F4F0E94FE2B89810E94A4
:10313000490D81E090E0F8019183808390E080E088
:10314000D4CFDF92EF92FF920F931F93CF93DF9331
:103150008A01EC01C60FD71F0E94DA0C7C01D980CE
:103160006CD2DD2059F0029721E030E0D816190624
:1031700019F010F030E020E0232B79F482E090E0A9
:10318000F801918380838EEF9FEFDF91CF911F91A4
:103190000F91FF90EF90DF900895EF2841F482E0C7
:1031A00090E0F8019183808384EF9FEFEECFF98068
:1031B0000E94DA0C4F2D50E0BE016E5F7F4F0E94DF
:1031C000FE2B89810E94490D81E090E0F8019183F6
:1031D000808390E080E0D9CF88E598E19093320336
:1031E00080933103089580913103909132030895C3
:1031F0000895FC0111821082938382830895DB017C
:103200001D921C92DC011296ED91FC911397718333
:10321000608313967C936E9312970895FC018081CE
:103220009181DB018D939C93A081B181109741F036
:103230008D919C9191838083892B11F4F383E28398
:103240000895FC0180819181DB018D939C93892BF2
:1032500011F473836283718360830895FC0111828A
:103260001082938382830895CF93DF9300D0CDB7EC
:10327000DEB71A821982F894BE016F5F7F4F88E330
:1032800093E0CCDF89819A81009709F010D389817E
:103290009A81892B89F7BE016F5F7F4F8CE393E0A2
:1032A000BDDF89819A81009709F001D389819A81D4
:1032B000892B89F778940F900F90DF91CF91089523
:1032C000CF93DF9300D0CDB7DEB71A821982F8947E
:1032D000BE016F5F7F4F84E393E0A0DF89819A8115
:1032E000009709F0E4D289819A81892B89F7789433
:1032F0000F900F90DF91CF91089581E0089590E0B5
:1033000080E00895EF92FF920F931F93CF93DF9386
:1033100000D0CDB7DEB71A8219828091330307EF50
:103320001FEF8823A1F1F894BE016F5F7F4F8CE3FC
:1033300093E074DF789489819A81EE24E394F12CF0
:10334000892B51F4F894BE016F5F7F4F88E393E0BF
:1033500065DF7894F12CE12C89819A810EEF1FEFC3
:103360000097A9F0FC014281538164E070E06CD6C3
:103370008C01892B61F0F89469817A81C701880FEB
:10338000991F880F991F885C9C4F5BDF7894C80158
:103390000F900F90DF91CF911F910F91FF90EF90C1
:1033A00008950F931F93CF93DF9300D000D0CDB734
:1033B000DEB71C821B821A8219828091330307EFC9
:1033C0001FEF8823C1F0AE014D5F5F4F64E070E0F6
:1033D000CE010196ACD68C01892B69F4E981FA8182
:1033E0008B819C8193838283F89469817A8184E3C1
:1033F00093E005DF7894C8010F900F900F900F9025
:10340000DF91CF911F910F910895B1D70496089540
:103410008F929F92AF92BF92CF92DF92EF92FF92E4
:103420000F931F93CF93DF9300D0CDB7DEB71A82EF
:103430001982BC016F5F7F4F6330710598F0AA2439
:10344000AA94BA2CC5010F900F90DF91CF911F91D4
:103450000F91FF90EF90DF90CF90BF90AF909F9033
:103460008F9008954115510551F3480159018A0182
:103470006C01CBDF8815990511F7E114F104F9F21D
:103480008E0D9F1DA816B906D0F2809133038823B4
:10349000F1F0F894B501645071099701AE014F5FE6
:1034A0005F4FC8010496D8D65C01892B71F48981DD
:1034B0009A81F80193838283C601880F991F880F30
:1034C000991FB801885C9C4F9ADE7894BBCF87EF38
:1034D000A82EBB24BA94B6CFAF92BF92CF92DF9200
:1034E000EF92FF920F931F93CF93DF9300D0CDB74E
:1034F000DEB71A821982892B09F047C06115710560
:1035000009F443C04115510509F43FC021153105A7
:1035100009F43BC001151105C1F1809133038823E3
:10352000B9F179016A015B01F894BE016F5F7F4FC9
:1035300084E393E073DE789489819A81009759F14E
:10354000DC0112966D917C91A80104969ED68C01A7
:10355000E981FA81D501ED93FC93828193810496F0
:10356000F6019183808351DFD7018D939C93C8012D
:103570000F900F90DF91CF911F910F91FF90EF90DF
:10358000DF90CF90BF90AF9008950FEF1FEFEFCF78
:1035900007EF1FEFECCF0EEF1FEFE9CFCF93DF93D5
:1035A000EC01672B71F4ECD68C179D0760F0DFD629
:1035B0002496C80FD91FDED68C0F9D1FDF91CF91A7
:1035C0000895DBD6F1CF90E080E0F8CF0F931F9302
:1035D000CF93DF932091330321112BC08B01EC019A
:1035E00088E393E006DE8CE393E003DE84E393E07C
:1035F00000DE97D00097C1F4C3D670E060E0CEDF64
:103600004CE251E062E070E07ED1009769F4809175
:103610002C0190912D01C6D6B801CE01FBD40097A4
:1036200019F421E020933303DF91CF911F910F9183
:10363000089584EF9FEFF8CFA0C6A2C6CF93DF9383
:10364000A2D6EC01892B11F40FDE3ADECE01DF9118
:10365000CF910895CF93DF9396D6EC01892B09F48F
:1036600003DECE01DF91CF91089580912C019091DE
:103670002D010895CF93DF9380913303D0E0C0E014
:103680008823D1F094D6EC01892BB1F4EDDD18DE5E
:1036900080912C0190912D01E4D1E5D2EC01892B90
:1036A00059F488E393E0DADD8CE393E0D7DD84E33B
:1036B00093E0D4DD10923303CE01DF91CF910895D2
:1036C000EF92FF920F931F93CF93DF93EC017A0158
:1036D0008B010F5F1F4F0E9DA0010F9D500D1E9D72
:1036E000500D112470E060E00E94072C90E080E013
:1036F000F0E0E0E02FEFE816F90639F4DF91CF9122
:103700001F910F91FF90EF9008951A8219822883DC
:10371000309711F0D283C1830196FE01C00FD11FF3
:10372000EACFCF92DF92EF92FF920F931F93CF9346
:10373000DF930CE114E00C7F43E050E06EE271E0B7
:1037400084E391E014D48EE2E82E81E0F82E94E335
:10375000C92E91E0D92ECBE7D4E0D7014D915D91F0
:103760007D01F601619171916F01198308835D8379
:103770004C835B834A837F836E839B012F5F3F4F24
:10378000249FC001259F900D349F900D112499878F
:1037900088870115110511F0C80192DF8885998588
:1037A000080F191F2A96F4E3EF16F1E0FF06A9F6B9
:1037B000E2E4F3E087EDDF011D928A95E9F71092CC
:1037C00041031092400310929A04109299041092AF
:1037D0009E0410929D0410929C0410929B041092DF
:1037E000A00410929F041092A2041092A1041092BF
:1037F000A4041092A3041092A8041092A70410929B
:10380000A6041092A5041092AA041092A904109282
:10381000AC041092AB0410927804109277041092CA
:103820007A041092790490E080E0DF91CF911F91AB
:103830000F91FF90EF90DF90CF9008950097F1F0F7
:10384000F894A4E3B1E0EBE7F4E030E020E04D9140
:103850005D9148175907A8F04281538141155105E0
:1038600081F08AE0829FF001839FF00D1124E558DA
:10387000FB4F80819181009759F4789490E080E02B
:1038800008952F5F3F4F3A962330310501F7F5CF6A
:10389000DC0111966D917C917183608341505109D7
:1038A00053834283FC012193CF01789408950097BC
:1038B00049F1DC018E91853041F4E0917904F09179
:1038C0007A043097F9F0CD0109948530D8F4282F87
:1038D00030E0F8948FEF8C938AE0829FF001839F11
:1038E000F00D1124E558FB4F8081918112969C9335
:1038F0008E931197B183A0838281938101969383E4
:10390000828378940895CF92DF92EF92FF920F9383
:103910001F93CF93DF939C0185E493E08C7F411547
:10392000510509F49BC02115310509F497C06115B3
:10393000710509F493C07A01AB01B9016D5F7F4F46
:103940006C7F9B012F5F3F4F249F8001259F100DAF
:10395000349F100D1124F8942091990430919A0409
:10396000232B59F42091A1043091A2042115310593
:1039700069F12017310708F058C02091A304309155
:10398000A404232B91F42091A1043091A204820F6E
:10399000931F2091AB043091AC042115310509F43B
:1039A00041C02017310708F056C07894CFEFDFEF01
:1039B00086EF9FEFF701D183C083DF91CF911F91F5
:1039C0000F91FF90EF90DF90CF900895C3E0D0E08B
:1039D000C0904003D090410324ED30E02C193D0904
:1039E0002017310710F32AE02C9FF0012D9FF00DD6
:1039F0001124E558FB4F918380835583448353837F
:103A000042837783668311870087009709F058DE29
:103A10000C0D1D1D1093410300934003789490E01A
:103A200080E0C8CFC4E0D0E0D3CFC3E0D0E02AE04C
:103A30002C9FF0012D9FF00D1124E558FB4F918331
:103A400080835583448353834283778366830097BF
:103A500029F336DEE3CFC4E0D0E0E9CF8FEF9FEF6C
:103A6000ACCF9C010397029708F069C0F89484E0FA
:103A70009AE0482F50E0241735070CF44DC091E030
:103A80008AE0829FF001839FF00D1124E558FB4FDF
:103A9000118210821582148213821282178216827A
:103AA0009923B1F18091990490919A04892BA9F4FA
:103AB0002091A1043091A2042115310571F080916B
:103AC000400390914103821B930B90934103809399
:103AD00040031092A2041092A1048091A30490913B
:103AE000A404892BA9F42091AB043091AC042115D6
:103AF000310571F08091400390914103821B930B3B
:103B000090934103809340031092AC041092AB0455
:103B1000789490E080E00895949FF001959FF00DD7
:103B20001124E558FB4F40815181452B31F44085EC
:103B30005185452B11F481509CCF90E0A1CF8FEFA0
:103B40009FEF08954115510549F1009739F161152D
:103B5000710521F1F8942091770430917804232B9A
:103B6000B9F42091790430917A04232B89F490934D
:103B700078048093770470937A046093790478943E
:103B800025E030E090E080E0FA0131832083089561
:103B900078942FEF3FEF86EF9FEFF6CF8FEF9FEFF9
:103BA0000895059769F4F8941092780410927704B8
:103BB00010927A0410927904789490E080E008954D
:103BC0008FEF9FEF08956115710519F4F0E0E0E0C3
:103BD00011C08530910581F4E0917704F09178046B
:103BE0003097A1F3CB0101960995009779F3FC0179
:103BF00085E08193CF0108959C0123503109223043
:103C0000310520F72AE0289FD001299FB00D11240B
:103C1000A558BB4F2D913C911197232BB9F21696C5
:103C20002D913C9117972617370780F2F89412963A
:103C30002D913C9113972115310529F0ED91FC91BF
:103C40001197309711F47894C1CF41815281119628
:103C50005C934E932150310913963C932E93129707
:103C600081937894C7CFE9E1F4E08EE5DF011D92FE
:103C70008A95E9F7E2E4F3E087EDDF011D928A958A
:103C8000E9F71092410310924003EBE7F4E082E37E
:103C9000DF011D928A95E9F7E7E7F4E084E0DF01B0
:103CA0001D928A95E9F790E080E00895CF93DF9325
:103CB000C0913A01D0913B01CF3FDC0759F40DD4BC
:103CC00090933B0180933A0197FF09C0D0933B0149
:103CD000C0933A0184EF9FEFDF91CF91089590E078
:103CE00080E0FACF8230910528F48093AD0490E013
:103CF00080E008958FEF9FEF08954F925F926F924B
:103D00007F92AF92BF92CF92DF92EF92FF920F938A
:103D10001F93CF93DF9300D0CDB7DEB71A821982FD
:103D2000009709F479C06115710509F475C02091F7
:103D30003A0130913B0107EF1FEF2F3F3F4F09F44E
:103D400045C06B015C01412C512C3201F12CE12C5E
:103D500010E000E09E012F5F3F4FA6014E195F0962
:103D6000B5016E0D7F1D80913A0190913B0114D4F5
:103D7000892B09F04BC089819A81009741F4E114A5
:103D8000F10429F42091AD04222309F442C0E80E85
:103D9000F91EEC14FD04D0F480E8481684E85806B7
:103DA0008EE16806710420F560E070E0CB010E94AE
:103DB00068282AE0420E511C611C711C0A3F4FEF1B
:103DC000140721F0043F8FEF1807A1F4C8010F90EA
:103DD0000F90DF91CF911F910F91FF90EF90DF90A7
:103DE000CF90BF90AF907F906F905F904F9008956D
:103DF00001EF1FEF81E090E0013F2FEF120711F07C
:103E000090E080E0892B09F4A5CFE0CF04EF1FEF0D
:103E1000DDCF0AEF1FEFDACF0FEF1FEFD7CF4F92B3
:103E20005F926F927F92AF92BF92CF92DF92EF92AA
:103E3000FF920F931F93CF93DF9300D0CDB7DEB7E0
:103E40001A821982009709F479C06115710509F485
:103E500075C020913A0130913B0107EF1FEF2F3FD2
:103E60003F4F09F445C06B015C01412C512C3201DC
:103E7000F12CE12C10E000E09E012F5F3F4FA601E6
:103E80004E195F09B5016E0D7F1D80913A01909129
:103E90003B0138D3892B09F04BC089819A81009767
:103EA00041F4E114F10429F42091AD04222309F432
:103EB00042C0E80EF91EEC14FD04D0F480E8481668
:103EC00086E9580688E96806710420F560E070E02C
:103ED000CB010E9468282AE0420E511C611C711C13
:103EE0000E3F4FEF140721F0043F8FEF1807A1F4A6
:103EF000C8010F900F90DF91CF911F910F91FF900C
:103F0000EF90DF90CF90BF90AF907F906F905F90D9
:103F10004F90089502EF1FEF81E090E0023F2FEFF6
:103F2000120711F090E080E0892B09F4A5CFE0CFD3
:103F300004EF1FEFDDCF0EEF1FEFDACF0FEF1FEF14
:103F4000D7CF80913A0190913B018F3F980749F07C
:103F5000BCD2892B49F48FEF9FEF90933B01809364
:103F60003A0190E080E0089584EF9FEF0895CF92AA
:103F7000DF92EF92FF920F931F93CF93DF9321E095
:103F80004115510509F020E04150510921112CC083
:103F9000DC01FB01D12CC12C21E022C03FEFC31A70
:103FA000D30A7D010D911D91E701EA80FB80E016A7
:103FB000F106A8F420813181E280F380F182E08271
:103FC00033832283ED90FC9011979D01225031099B
:103FD000E901F982E88211961C930E9320E0329653
:103FE000C416D506D8F2D2CFDF91CF911F910F9191
:103FF000FF90EF90DF90CF900895FC01680F791F3C
:1040000090E080E0E617F70709F408952191820F08
:10401000911DF8CF2091AE04211113C047DE009707
:1040200091F41092B4041092B3041092B20410925E
:10403000B1041092B0041092AF0421E02093AE04BA
:10404000089584EF9FEF0895AF92BF92CF92DF92D1
:10405000EF92FF920F931F93CF93DF93009709F492
:1040600060C04630510508F45CC02091AE04C7EF33
:10407000DFEF222309F449C08C01060F171FF80156
:10408000C080D180C114D10409F44EC096012A5FCA
:104090003F4F4217530708F447C07C018091B30497
:1040A0009091B40493838283B6016C5F7F4F580173
:1040B000A60EB71EC801A1DFF5019183808364E0DD
:1040C00070E0C8011ADEEC01892BF9F481E090E080
:1040D00009DEB601C801049610DEEC01892B91F4CB
:1040E00062E070E0C50109DEEC01892B59F4C701DB
:1040F000DEDB8091B3049091B40401969093B404F4
:104100008093B30490E080E0EDDDCE01DF91CF91AC
:104110001F910F91FF90EF90DF90CF90BF90AF90E5
:104120000895CFEFDFEFF1CFC9EFDFEFEECF6F9262
:104130007F928F929F92AF92BF92CF92DF92EF9237
:10414000FF920F931F93CF93DF9300D000D0CDB792
:10415000DEB7009709F47AC04115510509F476C01D
:104160002091AE0407EF1FEF222309F44DC03A015E
:104170007B015C0164E070E0CE01019650DE8C01B1
:10418000892B09F041C009811A810115110509F433
:104190005AC0480186E0880E911CB701680D791D50
:1041A00080913C0190913D010EDD6C01009709F476
:1041B00050C0A70170E060E00E94072C89819A81BD
:1041C000AB81BC81EC0CFD1CF70181939193A19311
:1041D000B1937F0181E090E085DDB801C7011FDE6A
:1041E000892B31F562E070E0C701800F911F17DE67
:1041F0008C01892BE9F490E080E074DDF501D18237
:10420000C082F30191828082C8010F900F900F90BD
:104210000F90DF91CF911F910F91FF90EF90DF9062
:10422000CF90BF90AF909F908F907F906F900895A8
:1042300090E080E057DDF50111821082F3011182D8
:104240001082C60134DB09EF1FEFDECF0FEF1FEF47
:10425000DBCF06EF1FEFD8CF0097A1F04115510536
:1042600089F02115310571F0F90136966E177F0737
:1042700048F0DC012D933C93DA01ED93FC9390E040
:1042800080E008958FEF9FEF0895AF92BF92CF9295
:10429000DF92EF92FF920F931F93CF93DF930097DC
:1042A00009F45FC04115510509F45BC06530710523
:1042B00008F457C02091AE04C7EFDFEF222391F13D
:1042C000DC01CD90DC9011971296ED91FC91960156
:1042D0002A5F3F4FC9EFDFEF2617370719F5C09167
:1042E000AF04D091B004209749F521E030E030933D
:1042F000B0042093AF047A018C01F093B204E093F0
:10430000B1045601B4E0AB0EB11CB50176DE0A0D66
:104310001B1DF801208131818217930729F5D701F0
:10432000CD92DC92CE01DF91CF911F910F91FF9042
:10433000EF90DF90CF90BF90AF9008952091B1049F
:104340003091B2042F5F3F4FCCEFDFEFE217F3075E
:1043500090F2CBEFDFEF2E173F0768F2D0E0C0E01E
:10436000CACFCFEFDFEFDECFC3EFDFEFDBCF84E0ED
:1043700090E0089582E090E008958CEF9FEF08951B
:1043800080E290E008951092B4041092B304109269
:10439000B2041092B1041092B0041092AF0490E0F5
:1043A00080E0089590933D0180933C0108958091B1
:1043B000AE04882391F0C5DD009789F41092B4040F
:1043C0001092B3041092B2041092B1041092B0048F
:1043D0001092AF041092AE04089590E080E008952A
:1043E000009749F06115710531F0FC0111821082CE
:1043F000FB01118210820895F3CF26E030E040E8FF
:1044000055E260E070E090E080E000C0892B21F48C
:1044100089EE94E00C94352A08951F920F920FB6FE
:104420000F9211242F933F934F935F936F937F933A
:104430008F939F93AF93BF93EF93FF9383E8809302
:10444000B2008091B5048F5F8093B504853019F474
:104450001092B504B5D0FF91EF91BF91AF919F91AC
:104460008F917F916F915F914F913F912F910F901D
:104470000FBE0F901F90189583E88093B200A0E7BD
:10448000B0E08C918E7F8C93E0EBF0E080818C7FAC
:104490008083E1EBF0E08081877F8083808186608C
:1044A000808380818E7F80838C9181608C9308953E
:1044B000E0E7F0E0808190819E7F90838170089595
:1044C00081E008951092B604089568EE73E080E0EC
:1044D00090E0FED590E080E0089526E030E040E0F6
:1044E00052EC61E070E090E080E090DF89EE94E0D3
:1044F000F2D6892B21F089EE94E007D7F7CF90E030
:1045000080E00895CF92DF92EF92FF920F931F9376
:10451000CF93DF936B017A01E9011982188289EE4A
:1045200094E0D9D6892B69F18601CC24C39482E02A
:10453000D82E8091B604811110C089EE94E0E5D6A2
:104540000297B9F7C092B604F801D1928F01888121
:104550009981019699838883ECCF888199818E1502
:104560009F0578F489EE94E0D0D68F3F9807A9F3A1
:10457000F80181938F0188819981019699838883BD
:10458000ECCF90E080E0DF91CF911F910F91FF90F1
:10459000EF90DF90CF9008950F931F93CF93DF9309
:1045A000EA01890189EE94E00E94192BF801D18378
:1045B000C08390E080E0DF91CF911F910F9108952B
:1045C0008091B70491E0980F9093B704882349F045
:1045D00021E030E03093B9042093B8048093B7040D
:1045E000089578940E948402F8948091B7048150D1
:1045F000F5CF0F931F93CF93DF9310928D051092F9
:104600008C059CD5FADEC0915101D09152011982DE
:10461000188268EE73E080E090E00E942A0270E069
:1046200060E090E080E00E94AC00009709F042C09A
:104630000E947503F8947894BE016C557F4F8A816F
:104640009B810E94AF00892B71F46FEF7FEFCB014C
:104650000E943E010E942402882329F081E0FE018D
:10466000E655FF4F8083F89407DF0E9427028823D6
:1046700011F080E00BC00E9424028111FACF81E08A
:10468000FE01E655FF4F90819111F3CF80938C0589
:1046900078940E94250A8C017894C655DF4F80914A
:1046A0008C0581110CC00E9404040E940A02F89437
:1046B00090E080E0DF91CF911F910F9108950E94CB
:1046C00008020E9427028823D9F081E080938D059B
:1046D00090918D0581E0911180E080938C0580910F
:1046E0008D058111E5DE0130110529F40E94250AAE
:1046F000892B09F4E7DE0E94250A8C01E1DECFCF89
:104700000E9424028111E1CF81E098819111DECFD6
:1047100080E0DCCF5058BB27AA270ED057C148D124
:1047200030F04DD120F031F49F3F11F41EF43DC123
:104730000EF4E095E7FB0AC1E92F59D180F3BA17CF
:10474000620773078407950718F071F49EF588C116
:104750000EF4E0950B2EBA2FA02D0B01B90190019C
:104760000C01CA01A0011124FF27591B99F0593FE0
:1047700050F4503E68F11A16F040A22F232F342F28
:104780004427585FF3CF469537952795A795F04076
:104790005395C9F77EF41F16BA0B620B730B840B8B
:1047A000BAF09150A1F0FF0FBB1F661F771F881F43
:1047B000C2F70EC0BA0F621F731F841F48F487959B
:1047C00077956795B795F7959E3F08F0B3CF93958A
:1047D000880F08F09927EE0F97958795089529D1AE
:1047E00080F09F3740F491110EF43BC160E070E01F
:1047F00080E89FE3089526F01B16611D711D811D41
:10480000ABC0C5C07FD008F481E00895F8D088F02F
:104810009F5790F0B92F9927B751A0F0D1F0660FAC
:10482000771F881F991F1AF0BA95C9F712C0B130C7
:1048300081F016D1B1E0089513C1672F782F882732
:10484000B85F39F0B93FCCF3869577956795B39506
:10485000D9F73EF490958095709561957F4F8F4F75
:104860009F4F0895E89409C097FB3EF4909580957A
:10487000709561957F4F8F4F9F4F9923A9F0F92F26
:1048800096E9BB279395F695879577956795B795A4
:10489000F111F8CFFAF4BB0F11F460FF1BC06F5F8A
:1048A0007F4F8F4F9F4F16C0882311F096E911C09C
:1048B000772321F09EE8872F762F05C0662371F0BD
:1048C00096E8862F70E060E02AF09A95660F771FD1
:1048D000881FDAF7880F9695879597F90895A9D0DC
:1048E00080F09F3740F491110EF0BBC060E070E0A3
:1048F00080E89FEB089526F41B16611D711D811D34
:104900002BC045C0990F0008550FAA0BE0E8FEEF39
:1049100016161706E807F907C0F012161306E40783
:10492000F50798F0621B730B840B950B39F40A267C
:1049300061F0232B242B252B21F408950A2609F45A
:10494000A140A6958FEF811D811D089597F99F675E
:1049500080E870E060E00895882371F4772321F007
:104960009850872B762F07C0662311F499270DC026
:104970009051862B70E060E02AF09A95660F771FC1
:10498000881FDAF7880F9695879597F908959F3FC6
:1049900031F0915020F4879577956795B795880FFA
:1049A000911D9695879597F908959FEF80EC08954E
:1049B00000240A94161617061806090608950024FE
:1049C0000A9412161306140605060895092E039478
:1049D000000C11F4882352F0BB0F40F4BF2B11F4EC
:1049E00060FF04C06F5F7F4F8F4F9F4F089557FD4B
:1049F0009058440F551F59F05F3F71F04795880F4D
:104A000097FB991F61F09F3F79F0879508951216E3
:104A100013061406551FF2CF4695F1DF08C016168F
:104A200017061806991FF1CF869571056105089440
:104A30000895E5DFA0F0BEE7B91788F4BB279F38DB
:104A400060F41616B11D672F782F8827985FF7CF6F
:104A5000869577956795B11D93959639C8F3089516
:104A6000E894BB2766277727CB0197F908954ADF9B
:104A700008F48FEF08950BD0A9CF9ADF28F09FDFBD
:104A800018F0952309F062CF90CF1124EACFAFDF61
:104A9000A0F3959FD1F3950F50E0551F629FF00151
:104AA000729FBB27F00DB11D639FAA27F00DB11DAA
:104AB000AA1F649F6627B00DA11D661F829F222733
:104AC000B00DA11D621F739FB00DA11D621F839FBA
:104AD000A00D611D221F749F3327A00D611D231F90
:104AE000849F600D211D822F762F6A2F11249F57DE
:104AF00050408AF0E1F088234AF0EE0FFF1FBB1F01
:104B0000661F771F881F91505040A9F79E3F51059F
:104B100070F01CCFA6CF5F3FECF3983EDCF3869598
:104B200077956795B795F795E7959F5FC1F7FE2B4A
:104B3000880F911D9695879597F908959F9305D0B5
:104B40000F9007FCEE5F28C030CF59DFE8F3E89400
:104B5000E0E0BB279F57F0F02AED3FE049EC06C0AC
:104B6000EE0FBB0F661F771F881F28F0B23A62074F
:104B70007307840728F0B25A620B730B840BE3951A
:104B80009A9572F7803830F49A95BB0F661F771F9D
:104B9000881FD2F79048FDCEEF93E0FF06C0A2EA4F
:104BA0002AED3FE049EC5FEBC7DD10DF0F90039487
:104BB00001FC9058E8E6F0E000C09F938F937F934C
:104BC0006F93FF93EF939B01AC0155DFEF91FF9142
:104BD00005D02F913F914F915F914DCFDF93CF93B0
:104BE0001F930F93FF92EF92DF927B018C016894E9
:104BF00005C0DA2EEF014BDFFE01E894A591259167
:104C0000359145915591AEF3EF0196DDFE01970187
:104C1000A801DA9479F7DF90EF90FF900F911F9140
:104C2000CF91DF9108951F920F920FB60F9211242A
:104C30002F933F934F935F936F937F938F939F93A4
:104C4000AF93BF93EF93FF938091BB0487FF27C07F
:104C500010928500109284008091BB048F5F809336
:104C6000BB048091BB04082E000C990B2091BA0460
:104C70002817190629F024F08091BB048C30D4F158
:104C80008091840090918500049680349C4908F4BA
:104C900079C08091840090918500049675C08091C0
:104CA000BB04082E000C990B2091BA042817190692
:104CB00099F294F2E091BB048E2FEE0F990BFC0158
:104CC000EE0FFF1FE80FF91FE454FB4F808186FFB2
:104CD000C3CFE091BB048E2FEE0F990BFC01EE0FBA
:104CE000FF1FE80FF91FE454FB4F808160E08F73D2
:104CF000C5D2B2CF2091840030918500E091BB04F1
:104D00008E2FEE0F990BFC01EE0FFF1FE80FF91F1E
:104D1000E454FB4F81819281820F931F909389000D
:104D200080938800E091BB048E2FEE0F990BFC015D
:104D3000EE0FFF1FE80FF91FE454FB4F808186FF41
:104D400010C0E091BB048E2FEE0F990BFC01EE0F0B
:104D5000FF1FE80FF91FE454FB4F808161E08F7360
:104D60008DD2FF91EF91BF91AF919F918F917F91E4
:104D70006F915F914F913F912F910F900FBE0F90C8
:104D80001F90189580E49CE9909389008093880097
:104D90008FEF8093BB04E5CFFC019091BA049C3067
:104DA00098F481E0890F8093BA049083892F90E072
:104DB000FC01EE0FFF1FE80FF91FE454FB4F88EBD7
:104DC0009BE09283818308958FEF80830895DF9223
:104DD000EF92FF920F931F93CF93DF93EC01D62EA8
:104DE0007A01890188818C3008F065C061E08D2DE1
:104DF00009D28881282F30E0F901EE0FFF1FE20F62
:104E0000F31FE454FB4F9D2D9F736081607C692BE1
:104E1000608320E232E02E193F0937FF02C02D5F88
:104E20003F4F3595279535952795298320E639E01D
:104E3000201B310B37FF02C02D5F3F4F3595279563
:104E4000359527952A832CE0622F6FD4829FB0017D
:104E5000112430E020E0AB01420F531FFA01EE0FA6
:104E6000FF1FE40FF51FE454FB4F908196FD16C021
:104E70002F5F3F4F2C30310571F781110FC0109219
:104E8000800082E08093810010928500109284005F
:104E9000B19A80916F00826080936F00E8818E2FBD
:104EA00090E0FC01EE0FFF1FE80FF91FE454FB4FE9
:104EB0008081806480838881DF91CF911F910F91E1
:104EC000FF90EF90DF90089520E639E040E252E055
:104ED0007ECFDC01EC91EC3090F511968C9111971E
:104EE00028E830E0281B310987FD3395220F331F56
:104EF000220F331F6217730784F012968C9128E5F6
:104F000032E0281B310987FD3395220F331F220F12
:104F1000331F621773070CF49B0122503109220FD3
:104F2000331F4FB7F8948E2F90E0FC01EE0FFF1F58
:104F3000E80FF91FE454FB4F328321834FBF0895DC
:104F4000AF92BF92CF92DF92EF92FF920F931F9397
:104F5000CF93DF93EC01603282E078070CF03DC024
:104F6000653B710514F064EB70E0898148E8A42E7C
:104F7000B12CA81AB10887FDB394AA0CBB1CAA0CCB
:104F8000BB1C0B2C000CCC08DD0877FF02C070E0C6
:104F900060E0072E000C880B990B2A8108E512E0CF
:104FA000021B110927FD1395000F111F000F111F80
:104FB000012E000C220B330B3F932F931F930F9363
:104FC00014EBE12EF12C00E010E020E030E0A9012C
:104FD0005DD30F900F900F900F90CE01DF91CF9186
:104FE0001F910F91FF90EF90DF90CF90BF90AF9007
:104FF00070CF1F920F920FB60F9211242F933F93F1
:105000008F939F93AF93BF938091E1049091E204BB
:10501000A091E304B091E4043091E00423E0230F75
:105020002D3758F50196A11DB11D2093E004809302
:10503000E1049093E204A093E304B093E40480912C
:10504000E5049091E604A091E704B091E80401968C
:10505000A11DB11D8093E5049093E604A093E7049D
:10506000B093E804BF91AF919F918F913F912F91A1
:105070000F900FBE0F901F90189526E8230F0296F1
:10508000A11DB11DD2CF3FB7F8948091E504909156
:10509000E604A091E704B091E80426B5A89B05C0FA
:1050A0002F3F19F00196A11DB11D3FBFBA2FA92FA7
:1050B000982F8827BC01CD01620F711D811D911DA4
:1050C00042E0660F771F881F991F4A95D1F7089510
:1050D0008F929F92AF92BF92CF92DF92EF92FF9208
:1050E0006B017C01D0DF4B015C01C114D104E104F0
:1050F000F104D9F00AD3C7DF681979098A099B0935
:10510000683E73408105910580F321E0C21AD10801
:10511000E108F10888EE880E83E0981EA11CB11CFE
:10512000C114D104E104F10431F7FF90EF90DF9056
:10513000CF90BF90AF909F908F900895789484B552
:10514000826084BD84B5816084BD85B5826085BD83
:1051500085B5816085BDEEE6F0E080818160808369
:10516000E1E8F0E01082808182608083808181604C
:105170008083E0E8F0E0808181608083E1EBF0E013
:10518000808184608083E0EBF0E0808181608083B7
:10519000EAE7F0E0808184608083808182608083A0
:1051A0008081816080838081806880831092C100CB
:1051B0000895833081F028F4813099F08230A9F08D
:1051C00008958730A9F08830C9F08430B1F4809117
:1051D00080008F7D03C0809180008F778093800056
:1051E000089584B58F7784BD089584B58F7DFBCFF6
:1051F0008091B0008F778093B00008958091B000C7
:105200008F7DF9CFCF93DF9390E0FC01E656FF4FFF
:10521000249182559F4FFC0184918823C9F090E02E
:10522000880F991FFC01E453FF4FA591B491FC0135
:10523000EE53FF4FC591D49161110DC09FB7F89403
:105240008C91209582238C938881282328839FBF6B
:10525000DF91CF910895623051F49FB7F8943C915B
:10526000822F809583238C93E8812E2BEFCF8FB7ED
:10527000F894EC912E2B2C938FBFEACF1F93CF93F2
:10528000DF93282F30E0F901EA57FF4F8491F901AD
:10529000E656FF4FD491F901E255FF4FC491CC235C
:1052A000A1F0162F811185DFEC2FF0E0EE0FFF1F2C
:1052B000EE53FF4FA591B4918FB7F894EC91111173
:1052C00008C0D095DE23DC938FBFDF91CF911F9173
:1052D0000895DE2BF8CFFC01918D228D892F90E06F
:1052E000805C9F4F821B91098F7399270895FC0161
:1052F000918D828D981731F0828DE80FF11D858D8B
:1053000090E008958FEF9FEF0895FC01918D828DBD
:10531000981761F0A28DAE0FBF2FB11D5D968C91D5
:10532000928D9F5F9F73928F90E008958FEF9FEF14
:105330000895FC01538D448D252F30E0842F90E09B
:10534000821B930B541710F0CF9608950197089580
:10535000FC01A48DA80FB92FB11DA35ABF4F2C91EA
:10536000848D90E001968F739927848FA689B789E1
:105370002C93A089B1898C91837080648C93938DD8
:10538000848D981306C00288F389E02D80818F7D7B
:1053900080830895CF93DF93EC01888D8823B1F04B
:1053A000AA89BB89E889F9898C9185FD03C0808130
:1053B00086FD0CC00FB607FCF7CF8C9185FFF2CFAE
:1053C000808185FFEDCFCE01C3DFEACFDF91CF91A2
:1053D0000895EF92FF920F931F93CF93DF93EC0109
:1053E00081E0888F9B8D8C8D98131AC0E889F9898C
:1053F000808185FF15C09FB7F894EE89FF8960838F
:10540000E889F98980818370806480839FBF81E00F
:1054100090E0DF91CF911F910F91FF90EF90089551
:10542000F62E0B8D10E00F5F1F4F0F731127E02E2C
:105430008C8D8E110BC00FB607FCFACFE889F98965
:10544000808185FFF5CFCE0183DFF2CFEB8DEC0FAE
:10545000FD2FF11DE35AFF4FF0829FB7F8940B8F99
:10546000EA89FB8980818062D0CFCF92DF92EF9270
:10547000FF921F93CF93DF93EC016A017B01122F00
:10548000E889F98982E08083C11481EED806E104BD
:10549000F10499F060E079E08DE390E0A7019601D6
:1054A00050D12150310941095109569547953795F9
:1054B0002795211580E1380790F0E889F989108255
:1054C00060E874E88EE190E0A70196013AD121509E
:1054D0003109410951095695479537952795EC852E
:1054E000FD853083EE85FF852083188EEC89FD894C
:1054F0001083EA89FB89808180618083EA89FB8946
:10550000808188608083EA89FB89808180688083CC
:10551000EA89FB8980818F7D8083DF91CF911F9104
:10552000FF90EF90DF90CF9008951F920F920FB6EB
:105530000F9211242F938F939F93EF93FF93E091FA
:10554000F904F091FA048081E091FF04F0910005E4
:1055500082FD1BC09081809102058F5F8F73209127
:105560000305821741F0E0910205F0E0E751FB4F9F
:10557000958F80930205FF91EF919F918F912F91CD
:105580000F900FBE0F901F9018958081F4CF1F923F
:105590000F920FB60F9211242F933F934F935F9367
:1055A0006F937F938F939F93AF93BF93EF93FF93EB
:1055B00089EE94E0CDDEFF91EF91BF91AF919F9185
:1055C0008F917F916F915F914F913F912F910F90AC
:1055D0000FBE0F901F901895E9EEF4E0138212822F
:1055E00088EE93E0A0E0B0E084839583A683B78340
:1055F00085ED91E09183808385EC90E095878487A9
:1056000084EC90E09787868780EC90E0918B808B8C
:1056100081EC90E0938B828B82EC90E0958B848B75
:1056200086EC90E0978B868B118E128E138E148EE3
:105630000895AF92BF92CF92DF92EF92FF920F93B5
:105640001F93CF93DF936C017B018B01040F151F18
:10565000EB015E01AE18BF08C017D10759F0699180
:10566000D601ED91FC910190F081E02DC6010995E4
:10567000892B79F7C501DF91CF911F910F91FF9091
:10568000EF90DF90CF90BF90AF9008954F925F92D0
:105690006F927F92AF92BF92CF92DF92EF92FF9282
:1056A0000F931F93CF93DF93CDB7DEB729013A0154
:1056B0009B01AC01241935094609570989899A8942
:1056C000AB89BC89BC01CD016A197B098C099D0994
:1056D0001DD0A8019701241935094609570953D04F
:1056E000CA01B9016A0D7B1D8C1D9D1DDF91CF91F3
:1056F0001F910F91FF90EF90DF90CF90BF90AF90F0
:105700007F906F905F904F9008950895DB018F9385
:105710009F935BD0BF91AF91A29F800D911DA39FDE
:10572000900DB29F900D11240895991B79E004C04B
:10573000991F961708F0961B881F7A95C9F78095D0
:105740000895A1E21A2EAA1BBB1BFD010DC0AA1FC2
:10575000BB1FEE1FFF1FA217B307E407F50720F0DA
:10576000A21BB30BE40BF50B661F771F881F991F55
:105770001A9469F760957095809590959B01AC019E
:10578000BD01CF010895052E97FB16F400940FD0AC
:1057900057FD05D0D6DF07FC02D046F408C050956F
:1057A0004095309521953F4F4F4F5F4F089590950D
:1057B0008095709561957F4F8F4F9F4F0895EE0FA5
:1057C000FF1F0590F491E02D099409D0A59F900D3D
:1057D000B49F900DA49F800D911D11240895A29F48
:1057E000B001B39FC001A39F700D811D1124911DB5
:1057F000B29F700D811D1124911D0895FB01DC01E4
:1058000002C001900D9241505040D8F70895DC013C
:1058100001C06D9341505040E0F70895F894FFCFD8
:10582000000034420000B442000000000000803F4D
:105830000000000000FEFFFFFF01E8030000FFFF83
:1058400000000000FFFFFFFFFFFFFFFFFFFF010061
:1058500001000100200030000800FFFFFFFF466943
:105860007865645374657044697363726574650028
:1058700001FB01FF007C0CA80CFE00620CE309FD9B
:1058800000F40B4E0CFC003A0CE309F6002B0DE380
:1058900009F500010C6A0DF400F40C810DDE00AD79
:1058A000114714DD001C13E309DA00350F3D0FD951
:1058B0000062144D0FE2001D0EE309E100580EE3F3
:1058C00009E000CD0EE309D6003818E309D500DA67
:1058D00010E309D4006610E309D300D70FE309C031
:1058E000005C0FE309F000A118E309ED005E18E386
:1058F0000900000000E929192B9929CA296B29857B
:0459000029772900DA
:00000001FF
